{
  "contractName": "subsidy",
  "abi": [
    {
      "inputs": [],
      "stateMutability": "nonpayable",
      "type": "constructor"
    },
    {
      "inputs": [
        {
          "internalType": "address",
          "name": "",
          "type": "address"
        }
      ],
      "name": "customers",
      "outputs": [
        {
          "internalType": "address",
          "name": "add",
          "type": "address"
        },
        {
          "internalType": "string",
          "name": "name",
          "type": "string"
        },
        {
          "internalType": "uint256",
          "name": "start_date",
          "type": "uint256"
        },
        {
          "internalType": "enum subsidy.CATEGORY",
          "name": "cat",
          "type": "uint8"
        }
      ],
      "stateMutability": "view",
      "type": "function",
      "constant": true
    },
    {
      "inputs": [],
      "name": "owner",
      "outputs": [
        {
          "internalType": "address",
          "name": "",
          "type": "address"
        }
      ],
      "stateMutability": "view",
      "type": "function",
      "constant": true
    },
    {
      "inputs": [
        {
          "internalType": "address",
          "name": "",
          "type": "address"
        }
      ],
      "name": "shopkeppers",
      "outputs": [
        {
          "internalType": "address",
          "name": "add",
          "type": "address"
        },
        {
          "internalType": "string",
          "name": "name",
          "type": "string"
        },
        {
          "internalType": "uint256",
          "name": "start_date",
          "type": "uint256"
        }
      ],
      "stateMutability": "view",
      "type": "function",
      "constant": true
    },
    {
      "inputs": [
        {
          "internalType": "address",
          "name": "address_",
          "type": "address"
        },
        {
          "internalType": "string",
          "name": "name_",
          "type": "string"
        }
      ],
      "name": "addShopkeeper",
      "outputs": [],
      "stateMutability": "nonpayable",
      "type": "function"
    },
    {
      "inputs": [
        {
          "internalType": "address",
          "name": "address_",
          "type": "address"
        },
        {
          "internalType": "string",
          "name": "name_",
          "type": "string"
        },
        {
          "internalType": "uint256",
          "name": "cat",
          "type": "uint256"
        }
      ],
      "name": "addCustomer",
      "outputs": [],
      "stateMutability": "nonpayable",
      "type": "function"
    },
    {
      "inputs": [
        {
          "internalType": "address",
          "name": "address_",
          "type": "address"
        }
      ],
      "name": "showShopkeeper",
      "outputs": [
        {
          "internalType": "string",
          "name": "",
          "type": "string"
        }
      ],
      "stateMutability": "view",
      "type": "function",
      "constant": true
    },
    {
      "inputs": [
        {
          "internalType": "address",
          "name": "address_",
          "type": "address"
        }
      ],
      "name": "showCustomer",
      "outputs": [
        {
          "internalType": "string",
          "name": "",
          "type": "string"
        }
      ],
      "stateMutability": "view",
      "type": "function",
      "constant": true
    },
    {
      "inputs": [
        {
          "internalType": "address",
          "name": "address_",
          "type": "address"
        }
      ],
      "name": "showCcatergory",
      "outputs": [
        {
          "internalType": "enum subsidy.CATEGORY",
          "name": "",
          "type": "uint8"
        }
      ],
      "stateMutability": "view",
      "type": "function",
      "constant": true
    },
    {
      "inputs": [],
      "name": "addFunds",
      "outputs": [],
      "stateMutability": "payable",
      "type": "function",
      "payable": true
    },
    {
      "inputs": [],
      "name": "showBalance",
      "outputs": [
        {
          "internalType": "uint256",
          "name": "",
          "type": "uint256"
        }
      ],
      "stateMutability": "view",
      "type": "function",
      "constant": true
    },
    {
      "inputs": [
        {
          "internalType": "address payable",
          "name": "shop_add",
          "type": "address"
        },
        {
          "internalType": "uint256",
          "name": "total",
          "type": "uint256"
        }
      ],
      "name": "payment",
      "outputs": [],
      "stateMutability": "payable",
      "type": "function",
      "payable": true
    },
    {
      "inputs": [
        {
          "internalType": "address",
          "name": "add",
          "type": "address"
        }
      ],
      "name": "isUser",
      "outputs": [
        {
          "internalType": "bool",
          "name": "",
          "type": "bool"
        }
      ],
      "stateMutability": "view",
      "type": "function",
      "constant": true
    },
    {
      "inputs": [
        {
          "internalType": "address",
          "name": "add",
          "type": "address"
        }
      ],
      "name": "isAdmin",
      "outputs": [
        {
          "internalType": "bool",
          "name": "",
          "type": "bool"
        }
      ],
      "stateMutability": "view",
      "type": "function",
      "constant": true
    }
  ],
  "bytecode": "0x608060405234801561001057600080fd5b5033600360006101000a81548173ffffffffffffffffffffffffffffffffffffffff021916908373ffffffffffffffffffffffffffffffffffffffff16021790555061154e806100616000396000f3fe6080604052600436106100c25760003560e01c806381b2d07b1161007f578063a26759cb11610059578063a26759cb14610296578063d66520b7146102a0578063f02b0b5c146102dd578063f06edc5f14610306576100c2565b806381b2d07b146102035780638da5cb5b1461022e578063951ae13c14610259576100c2565b80630bd946e9146100c757806324d7806c146100f0578063336989ae1461012d57806334c507741461016d5780634209fff1146101aa57806367a09c23146101e7575b600080fd5b3480156100d357600080fd5b506100ee60048036038101906100e99190610f5d565b610345565b005b3480156100fc57600080fd5b5061011760048036038101906101129190610e94565b61053b565b6040516101249190611164565b60405180910390f35b34801561013957600080fd5b50610154600480360381019061014f9190610e94565b6105a6565b6040516101649493929190611118565b60405180910390f35b34801561017957600080fd5b50610194600480360381019061018f9190610e94565b61068b565b6040516101a1919061119a565b60405180910390f35b3480156101b657600080fd5b506101d160048036038101906101cc9190610e94565b61075f565b6040516101de9190611164565b60405180910390f35b61020160048036038101906101fc9190610ec1565b6107be565b005b34801561020f57600080fd5b50610218610872565b60405161022591906111fc565b60405180910390f35b34801561023a57600080fd5b5061024361090a565b60405161025091906110bf565b60405180910390f35b34801561026557600080fd5b50610280600480360381019061027b9190610e94565b610930565b60405161028d919061119a565b60405180910390f35b61029e610a04565b005b3480156102ac57600080fd5b506102c760048036038101906102c29190610e94565b610a96565b6040516102d4919061117f565b60405180910390f35b3480156102e957600080fd5b5061030460048036038101906102ff9190610f01565b610aef565b005b34801561031257600080fd5b5061032d60048036038101906103289190610e94565b610c70565b60405161033c939291906110da565b60405180910390f35b600360009054906101000a900473ffffffffffffffffffffffffffffffffffffffff1673ffffffffffffffffffffffffffffffffffffffff163373ffffffffffffffffffffffffffffffffffffffff16146103d5576040517f08c379a00000000000000000000000000000000000000000000000000000000081526004016103cc906111dc565b60405180910390fd5b60004290506000808314156103ed5760009050610405565b60018314156103ff5760019050610404565b600290505b5b600060405180608001604052808773ffffffffffffffffffffffffffffffffffffffff16815260200186815260200184815260200183600281111561044d5761044c6113b8565b5b815250905080600160008873ffffffffffffffffffffffffffffffffffffffff1673ffffffffffffffffffffffffffffffffffffffff16815260200190815260200160002060008201518160000160006101000a81548173ffffffffffffffffffffffffffffffffffffffff021916908373ffffffffffffffffffffffffffffffffffffffff16021790555060208201518160010190805190602001906104f5929190610d42565b506040820151816002015560608201518160030160006101000a81548160ff0219169083600281111561052b5761052a6113b8565b5b0217905550905050505050505050565b6000600360009054906101000a900473ffffffffffffffffffffffffffffffffffffffff1673ffffffffffffffffffffffffffffffffffffffff168273ffffffffffffffffffffffffffffffffffffffff16141561059c57600190506105a1565b600090505b919050565b60016020528060005260406000206000915090508060000160009054906101000a900473ffffffffffffffffffffffffffffffffffffffff16908060010180546105ef90611355565b80601f016020809104026020016040519081016040528092919081815260200182805461061b90611355565b80156106685780601f1061063d57610100808354040283529160200191610668565b820191906000526020600020905b81548152906001019060200180831161064b57829003601f168201915b5050505050908060020154908060030160009054906101000a900460ff16905084565b6060600160008373ffffffffffffffffffffffffffffffffffffffff1673ffffffffffffffffffffffffffffffffffffffff16815260200190815260200160002060010180546106da90611355565b80601f016020809104026020016040519081016040528092919081815260200182805461070690611355565b80156107535780601f1061072857610100808354040283529160200191610753565b820191906000526020600020905b81548152906001019060200180831161073657829003601f168201915b50505050509050919050565b600080600160008473ffffffffffffffffffffffffffffffffffffffff1673ffffffffffffffffffffffffffffffffffffffff1681526020019081526020016000206002015411156107b457600190506107b9565b600090505b919050565b6000808373ffffffffffffffffffffffffffffffffffffffff16836040516107e5906110aa565b60006040518083038185875af1925050503d8060008114610822576040519150601f19603f3d011682016040523d82523d6000602084013e610827565b606091505b50915091508161086c576040517f08c379a0000000000000000000000000000000000000000000000000000000008152600401610863906111bc565b60405180910390fd5b50505050565b6000600360009054906101000a900473ffffffffffffffffffffffffffffffffffffffff1673ffffffffffffffffffffffffffffffffffffffff163373ffffffffffffffffffffffffffffffffffffffff1614610904576040517f08c379a00000000000000000000000000000000000000000000000000000000081526004016108fb906111dc565b60405180910390fd5b47905090565b600360009054906101000a900473ffffffffffffffffffffffffffffffffffffffff1681565b6060600260008373ffffffffffffffffffffffffffffffffffffffff1673ffffffffffffffffffffffffffffffffffffffff168152602001908152602001600020600101805461097f90611355565b80601f01602080910402602001604051908101604052809291908181526020018280546109ab90611355565b80156109f85780601f106109cd576101008083540402835291602001916109f8565b820191906000526020600020905b8154815290600101906020018083116109db57829003601f168201915b50505050509050919050565b600360009054906101000a900473ffffffffffffffffffffffffffffffffffffffff1673ffffffffffffffffffffffffffffffffffffffff163373ffffffffffffffffffffffffffffffffffffffff1614610a94576040517f08c379a0000000000000000000000000000000000000000000000000000000008152600401610a8b906111dc565b60405180910390fd5b565b6000600160008373ffffffffffffffffffffffffffffffffffffffff1673ffffffffffffffffffffffffffffffffffffffff16815260200190815260200160002060030160009054906101000a900460ff169050919050565b600360009054906101000a900473ffffffffffffffffffffffffffffffffffffffff1673ffffffffffffffffffffffffffffffffffffffff163373ffffffffffffffffffffffffffffffffffffffff1614610b7f576040517f08c379a0000000000000000000000000000000000000000000000000000000008152600401610b76906111dc565b60405180910390fd5b6000429050600060405180606001604052808573ffffffffffffffffffffffffffffffffffffffff16815260200184815260200183815250905080600260008673ffffffffffffffffffffffffffffffffffffffff1673ffffffffffffffffffffffffffffffffffffffff16815260200190815260200160002060008201518160000160006101000a81548173ffffffffffffffffffffffffffffffffffffffff021916908373ffffffffffffffffffffffffffffffffffffffff1602179055506020820151816001019080519060200190610c5c929190610d42565b506040820151816002015590505050505050565b60026020528060005260406000206000915090508060000160009054906101000a900473ffffffffffffffffffffffffffffffffffffffff1690806001018054610cb990611355565b80601f0160208091040260200160405190810160405280929190818152602001828054610ce590611355565b8015610d325780601f10610d0757610100808354040283529160200191610d32565b820191906000526020600020905b815481529060010190602001808311610d1557829003601f168201915b5050505050908060020154905083565b828054610d4e90611355565b90600052602060002090601f016020900481019282610d705760008555610db7565b82601f10610d8957805160ff1916838001178555610db7565b82800160010185558215610db7579182015b82811115610db6578251825591602001919060010190610d9b565b5b509050610dc49190610dc8565b5090565b5b80821115610de1576000816000905550600101610dc9565b5090565b6000610df8610df38461123c565b611217565b905082815260208101848484011115610e1457610e1361144a565b5b610e1f848285611313565b509392505050565b600081359050610e36816114d3565b92915050565b600081359050610e4b816114ea565b92915050565b600082601f830112610e6657610e65611445565b5b8135610e76848260208601610de5565b91505092915050565b600081359050610e8e81611501565b92915050565b600060208284031215610eaa57610ea9611454565b5b6000610eb884828501610e27565b91505092915050565b60008060408385031215610ed857610ed7611454565b5b6000610ee685828601610e3c565b9250506020610ef785828601610e7f565b9150509250929050565b60008060408385031215610f1857610f17611454565b5b6000610f2685828601610e27565b925050602083013567ffffffffffffffff811115610f4757610f4661144f565b5b610f5385828601610e51565b9150509250929050565b600080600060608486031215610f7657610f75611454565b5b6000610f8486828701610e27565b935050602084013567ffffffffffffffff811115610fa557610fa461144f565b5b610fb186828701610e51565b9250506040610fc286828701610e7f565b9150509250925092565b610fd581611294565b82525050565b610fe4816112b8565b82525050565b610ff381611301565b82525050565b60006110048261126d565b61100e8185611283565b935061101e818560208601611322565b61102781611459565b840191505092915050565b600061103f601483611283565b915061104a8261146a565b602082019050919050565b6000611062600983611283565b915061106d82611493565b602082019050919050565b6000611085600083611278565b9150611090826114bc565b600082019050919050565b6110a4816112f7565b82525050565b60006110b582611078565b9150819050919050565b60006020820190506110d46000830184610fcc565b92915050565b60006060820190506110ef6000830186610fcc565b81810360208301526111018185610ff9565b9050611110604083018461109b565b949350505050565b600060808201905061112d6000830187610fcc565b818103602083015261113f8186610ff9565b905061114e604083018561109b565b61115b6060830184610fea565b95945050505050565b60006020820190506111796000830184610fdb565b92915050565b60006020820190506111946000830184610fea565b92915050565b600060208201905081810360008301526111b48184610ff9565b905092915050565b600060208201905081810360008301526111d581611032565b9050919050565b600060208201905081810360008301526111f581611055565b9050919050565b6000602082019050611211600083018461109b565b92915050565b6000611221611232565b905061122d8282611387565b919050565b6000604051905090565b600067ffffffffffffffff82111561125757611256611416565b5b61126082611459565b9050602081019050919050565b600081519050919050565b600081905092915050565b600082825260208201905092915050565b600061129f826112d7565b9050919050565b60006112b1826112d7565b9050919050565b60008115159050919050565b60008190506112d2826114bf565b919050565b600073ffffffffffffffffffffffffffffffffffffffff82169050919050565b6000819050919050565b600061130c826112c4565b9050919050565b82818337600083830152505050565b60005b83811015611340578082015181840152602081019050611325565b8381111561134f576000848401525b50505050565b6000600282049050600182168061136d57607f821691505b60208210811415611381576113806113e7565b5b50919050565b61139082611459565b810181811067ffffffffffffffff821117156113af576113ae611416565b5b80604052505050565b7f4e487b7100000000000000000000000000000000000000000000000000000000600052602160045260246000fd5b7f4e487b7100000000000000000000000000000000000000000000000000000000600052602260045260246000fd5b7f4e487b7100000000000000000000000000000000000000000000000000000000600052604160045260246000fd5b600080fd5b600080fd5b600080fd5b600080fd5b6000601f19601f8301169050919050565b7f4661696c656420746f2073656e64204574686572000000000000000000000000600082015250565b7f4e6f74206f776e65720000000000000000000000000000000000000000000000600082015250565b50565b600381106114d0576114cf6113b8565b5b50565b6114dc81611294565b81146114e757600080fd5b50565b6114f3816112a6565b81146114fe57600080fd5b50565b61150a816112f7565b811461151557600080fd5b5056fea264697066735822122017bbae464fc7f12d56cf5086f1560ebb642bf307f14f3baecb4b64026d8db38264736f6c63430008070033",
  "immutableReferences": {},
  "source": "// SPDX-License-Identifier: MIT\npragma solidity >=0.4.22 <0.8.9;\n\ncontract subsidy {\n    Transaction[] Transactions;\n\n    mapping(address => Customer) public customers;\n    mapping(address => Shopkepper) public shopkeppers;\n\n    address public owner;\n\n    enum CATEGORY {\n        BPL,\n        APL,\n        REFUGEE\n    }\n\n    //add public\n    constructor() {\n        owner = msg.sender;\n    }\n\n    struct product {\n        string itemName;\n        uint256 amount;\n    }\n\n    struct Transaction {\n        Shopkepper seller;\n        Customer buyer;\n        product[] items;\n        uint256 total;\n        uint256 discount;\n        uint256 time;\n    }\n\n    struct Customer {\n        address add;\n        string name;\n        // uint256 monthly_limit;\n        uint256 start_date;\n        CATEGORY cat;\n    }\n\n    struct Shopkepper {\n        address add;\n        string name;\n        // uint256 monthly_limit;\n        uint256 start_date;\n    }\n\n    modifier onlyOwner() {\n        require(msg.sender == owner, \"Not owner\");\n        // Underscore is a special character only used inside\n        // a function modifier and it tells Solidity to\n        // execute the rest of the code.\n        _;\n    }\n\n    function addShopkeeper(address address_, string memory name_)\n        public\n        onlyOwner\n    {\n        uint256 start_date = block.timestamp;\n        Shopkepper memory shopkepper = Shopkepper(address_, name_, start_date);\n        shopkeppers[address_] = shopkepper;\n    }\n\n    function addCustomer(\n        address address_,\n        string memory name_,\n        uint256 cat\n    ) public onlyOwner {\n        uint256 start_date = block.timestamp;\n        CATEGORY cat_;\n        if (cat == 0) {\n            cat_ = CATEGORY.BPL;\n        } else if (cat == 1) {\n            cat_ = CATEGORY.APL;\n        } else {\n            cat_ = CATEGORY.REFUGEE;\n        }\n\n        Customer memory customer = Customer(address_, name_, start_date, cat_);\n        customers[address_] = customer;\n    }\n\n    function showShopkeeper(address address_)\n        public\n        view\n        returns (string memory)\n    {\n        return shopkeppers[address_].name;\n    }\n\n    function showCustomer(address address_)\n        public\n        view\n        returns (string memory)\n    {\n        return customers[address_].name;\n    }\n\n    function showCcatergory(address address_) public view returns (CATEGORY) {\n        return customers[address_].cat;\n    }\n\n    function addFunds() external payable onlyOwner {}\n\n    function showBalance() public view onlyOwner returns (uint256) {\n        return address(this).balance;\n    }\n\n    function payment(address payable shop_add, uint256 total) external payable {\n        (bool sent, bytes memory data) = shop_add.call{value: total}(\"\");\n        require(sent, \"Failed to send Ether\");\n    }\n\n    function isUser(address add) public view returns (bool) {\n        if (customers[add].start_date > 0) {\n            return true;\n        } else {\n            return false;\n        }\n    }\n\n    function isAdmin(address add) public view returns (bool) {\n        if (add == owner) {\n            return true;\n        }\n        return false;\n    }\n}\n",
  "sourcePath": "/mnt/c/Users/lenovo/Desktop/myprog2/s-m-s/client/src/contracts/subsidy.sol",
  "compiler": {
    "name": "solc",
    "version": "0.8.7+commit.e28d00a7.Emscripten.clang"
  },
  "schemaVersion": "3.4.6",
  "updatedAt": "2022-04-09T02:30:24.922Z",
  "networkType": "ethereum",
  "devdoc": {
    "kind": "dev",
    "methods": {},
    "version": 1
  },
  "userdoc": {
    "kind": "user",
    "methods": {},
    "version": 1
  }
}